:020000040800F2
:1000000018040020010800086108000861080008C1
:10001000610800086108000861080008000000008D
:10002000000000000000000000000000610800085F
:10003000610800080000000061080008610800086D
:1000400061080008610800086108000861080008EC
:1000500061080008610800086108000861080008DC
:1000600061080008610800086108000861080008CC
:1000700061080008610800086108000861080008BC
:1000800061080008610800086108000861080008AC
:10009000610800086108000861080008610800089C
:1000A000610800086108000861080008610800088C
:1000B0006108000861080008FD09000861080008DF
:1000C000610800086108000861080008610800086C
:1000D000610800086108000861080008610800085C
:1000E00061080008610800086108000800000000BD
:1000F0000000000000000000000000000000000000
:1001000000000000000000005FF808F180B485B036
:1001100000AF786039600023FB817B681B88FB811E
:100120007B682E4A934213D07B682D4A93420FD0AE
:100130007B68B3F1804F0BD07B682A4A934207D08B
:100140007B68294A934203D07B68284A934208D1AE
:10015000FB8923F07003FB813B685A88FB891343BA
:10016000FB817B68224A93420CD07B68214A9342F0
:1001700008D0FB8923F44073FB813B68DA88FB8954
:100180001343FB817B68FA891A803B689A887B68F5
:100190009A853B681A887B681A857B680F4A934268
:1001A0000FD07B680E4A93420BD07B68124A934271
:1001B00007D07B68114A934203D07B68104A934270
:1001C00004D13B681B7A9AB27B681A867B6801224D
:1001D0009A8200BF1437BD4680BC7047002C014096
:1001E000003401400004004000080040000C0040C2
:1001F0000010004000140040004001400044014055
:100200000048014080B485B000AF786039600023B9
:100210007B810023FB810023BB817B681B8C9BB20D
:1002200023F001039AB27B681A847B681B8CFB81E4
:100230007B689B88BB817B681B8B7B817B8923F0E0
:1002400070037B817B8923F003037B813B681A88E1
:100250007B8913437B81FB8923F00203FB813B688D
:100260001A89FB891343FB813B685A88FB89134336
:10027000FB817B68244A93420FD07B68234A9342D8
:100280000BD07B68224A934207D07B68214A934275
:1002900003D07B68204A934223D1FB8923F00803D3
:1002A000FB813B685A89FB891343FB81FB8923F05F
:1002B0000403FB813B689A88FB891343FB81BB895C
:1002C00023F48073BB81BB8923F40073BB813B683B
:1002D0009A89BB891343BB813B68DA89BB89134385
:1002E000BB817B68BA899A807B687A891A833B686C
:1002F000DA887B689A867B68FA891A8400BF14378B
:10030000BD4680BC704700BF002C01400034014056
:1003100000400140004401400048014080B485B0E5
:1003200000AF7860396000237B810023FB810023CC
:10033000BB817B681B8C9BB223F480739AB27B6871
:100340001A847B681B8CFB817B689B88BB817B68E4
:100350009B8B7B817B8923F070037B817B8923F0DE
:1003600003037B813B681A887B8913437B81FB896C
:1003700023F40073FB813B681B891B029AB2FB8943
:100380001343FB813B685B881B029AB2FB891343D2
:10039000FB817B68224A934203D07B68214A9342C7
:1003A0002BD1FB8923F40063FB813B685B891B0233
:1003B0009AB2FB891343FB81FB8923F48063FB81A1
:1003C0003B689B881B029AB2FB891343FB81BB8964
:1003D00023F48053BB81BB8923F40053BB813B686A
:1003E0009B891B019AB2BB891343BB813B68DB89A4
:1003F0001B019AB2BB891343BB817B68BA899A807F
:100400007B687A899A833B68DA887B689A877B68FD
:10041000FA891A8400BF1437BD4680BC704700BFFC
:10042000002C01400034014080B485B000AF7860FA
:1004300039600023BB8100237B810023FB817B6823
:100440001B8C9BB223F480539AB27B681A847B681E
:100450001B8C7B817B689B88FB817B689B8BBB8132
:10046000BB8923F4E043BB81BB8923F44073BB8188
:100470003B681B881B029AB2BB891343BB817B89F3
:1004800023F400537B813B681B891B039AB27B8951
:1004900013437B813B685B881B039AB27B891343C0
:1004A0007B817B68124A934203D07B68114A934256
:1004B0000AD1FB8923F48043FB813B689B899B0124
:1004C0009AB2FB891343FB817B68FA899A807B6827
:1004D000BA899A833B68DA887B68A3F840207B68F6
:1004E0007A891A8400BF1437BD4680BC704700BFAC
:1004F000002C01400034014080B483B000AF78602C
:100500007B684FF6FF729A807B6800221A807B68B6
:100510000022DA807B6800225A807B6800221A72EF
:1005200000BF0C37BD4680BC704700BF80B483B0AD
:1005300000AF78600B46FB70FB78002B08D07B681F
:100540001B889BB243F001039AB27B681A8007E0D4
:100550007B681B889BB223F001039AB27B681A80E8
:1005600000BF0C37BD4680BC704700BF80B485B06B
:1005700000AF78600B467B800023FB817B681B8B80
:10058000FB81FB8923F00803FB81FA897B881343F5
:10059000FB817B68FA891A8300BF1437BD4680BC93
:1005A000704700BF80B485B000AF78600B467B8099
:1005B0000023FB817B689B8BFB81FB8923F0080375
:1005C000FB81FA897B881343FB817B68FA899A83D4
:1005D00000BF1437BD4680BC704700BF80B485B0F3
:1005E00000AF78600B467B800023FB817B689B8B90
:1005F000FB81FB8923F40063FB817B881B029AB299
:10060000FB891343FB817B68FA899A8300BF143707
:10061000BD4680BC704700BF80B485B000AF786035
:100620000B467B800023FB730023BB8100237B816F
:100630007B681B8A9AB27B881340BB817B689B894D
:100640009AB27B8813407B81BB89002B05D07B89C4
:10065000002B02D00123FB7301E00023FB73FB7B23
:1006600018461437BD4680BC704700BF80B483B0C5
:1006700000AF78600B467B807B88DB439AB27B6857
:100680001A8200BF0C37BD4680BC704780B500AFF2
:10069000154A154B1B6843F0010313601249124BB6
:1006A0005A68124B13404B600F4A0F4B1B6823F0E4
:1006B000847323F4803313600B4A0B4B1B6823F4C1
:1006C00080231360084A084B5B6823F4FE035360E1
:1006D000054B4FF41F029A6000F00CF8044B4FF0EA
:1006E00000629A6000BF80BD001002400000FFF869
:1006F00000ED00E080B500AF00F002F800BF80BD63
:1007000080B483B000AF00237B6000233B603A4A93
:10071000394B1B6843F480331360374B1B6803F479
:1007200000333B607B6801337B603B68002B03D167
:100730007B68B3F5A06FF0D12F4B1B6803F4003337
:10074000002B02D001233B6001E000233B603B68AB
:10075000012B4BD1294A294B1B6843F0100313602E
:10076000264A264B1B6823F003031360234A234BBE
:100770001B6843F0020313601F4A1F4B5B68536002
:100780001D4A1D4B5B6853601B4A1B4B5B6843F45F
:1007900080635360184A184B5B6823F47C135360E2
:1007A000154A154B5B6843F4E8135360124A124B29
:1007B0001B6843F08073136000BF0F4B1B6803F08E
:1007C0000073002BF9D00C4A0B4B5B6823F003033A
:1007D0005360094A084B5B6843F00203536000BF53
:1007E000054B5B6803F00C03082BF9D100BF0C37F5
:1007F000BD4680BC704700BF001002400020024090
:1008000080B582B000AF114B7B60114B3B6007E0BD
:100810003B681A1D3A607A68111D796012681A6087
:100820003B680C4A9342F3D30B480C494FF000024B
:100830008842B8BF40F8042BFADBFFF727FF00F02F
:10084000F7F800BF0837BD4680BD00BF3C0D00086B
:1008500000000020140000201400002014000020DC
:1008600080B400AFFEE700BF80B489B000AF78600D
:1008700039600023FB6100233B610023BB6100233F
:10088000FB6000237B610023BB603B68DB7803F0E7
:100890000F03FB613B68DB7803F01003002B05D0EE
:1008A0003B689B781A46FB691343FB613B681B88D6
:1008B000DBB2002B44D07B681B687B610023BB61EB
:1008C00038E00122BB6902FA03F3FB603B681B8836
:1008D0001A46FB6813403B613A69FB689A4226D18D
:1008E000BB699B00FB600F22FB6802FA03F3BB604D
:1008F000BB68DB437A6913407B61FA69FB6802FAE3
:1009000003F37A6913437B613B68DB78282B05D1BD
:100910000122BB699A407B685A6108E03B68DB783A
:10092000482B04D10122BB699A407B681A61BB69DC
:100930000133BB61BB69072BC3D97B687A691A6035
:100940003B681B88FF2B46D97B685B687B61002373
:10095000BB613AE0BB690833012202FA03F3FB6092
:100960003B681B881A46FB6813403B613A69FB6889
:100970009A4227D1BB699B00FB600F22FB6802FAF9
:1009800003F3BB60BB68DB437A6913407B61FA69A0
:10099000FB6802FA03F37A6913437B613B68DB78F7
:1009A000282B05D1BB69083301229A407B685A6124
:1009B0003B68DB78482B05D1BB69083301229A409C
:1009C0007B681A61BB690133BB61BB69072BC1D965
:1009D0007B687A695A6000BF2437BD4680BC704787
:1009E00080B483B000AF78600B467B807A887B68E8
:1009F0005A6100BF0C37BD4680BC704780B500AF60
:100A000001210948FFF708FE0346002B09D0012108
:100A10000548FFF72BFE054A044BDB6883F40053BF
:100A2000D36000BF80BD00BF00080040001001403F
:100A300080B58AB000AF01211D2000F0E1F84FF42D
:100A40000053BB821023FB750323BB7507F114030E
:100A500019466548FFF708FF4FF400516248FFF759
:100A6000BFFF0121022000F0E9F80123BB82182317
:100A7000FB750323BB7507F1140319465B48FFF7A9
:100A8000F3FE07F108031846FFF736FD00237B81CC
:100A9000574B1B68574AA2FB03239B0C9BB2013B9D
:100AA0009BB23B816423BB8107F10803194652487E
:100AB000FFF72CFB60233B8301237B836423FB83B1
:100AC00000233B8407F1180319464B48FFF726FC27
:100AD00008214948FFF766FD01214748FFF726FD39
:100AE0000223BB821823FB750323BB7507F1140394
:100AF00019463E48FFF7B8FE07F108031846FFF70E
:100B0000FBFC00237B813A4B1B683A4AA2FB032380
:100B10009B0C9BB2013B9BB23B816423BB8107F1E1
:100B2000080319463448FFF7F1FA60233B83012399
:100B30007B836423FB8300233B8407F1180319465E
:100B40002D48FFF771FC08212B48FFF747FD0121D5
:100B50002948FFF7EBFC4023BB821823FB750323D6
:100B6000BB7507F1140319462448FFF77DFE07F112
:100B700008031846FFF7C0FC00237B811C4B1B6851
:100B80001C4AA2FB03239B0C9BB2013B9BB23B8103
:100B90006423BB8107F1080319461748FFF7B6FA2B
:100BA00060233B8301237B836423FB8300233B84FB
:100BB00007F1180319461048FFF724FB08210E48D7
:100BC000FFF7D4FC01210C48FFF7B0FC1E233B715A
:100BD00000237B710023BB710123FB713B1D184671
:100BE00000F04AF8FEE700BF00100140000C014091
:100BF0000000002083DE1B43000400400008014089
:100C000080B483B000AF78600B46FB70FB78002B9C
:100C100006D00949084B9A697B6813438B6106E04B
:100C20000549054B9A697B68DB4313408B6100BF24
:100C30000C37BD4680BC70470010024080B483B0C2
:100C400000AF78600B46FB70FB78002B06D009499B
:100C5000084BDA697B681343CB6106E00549054B15
:100C6000DA697B68DB431340CB6100BF0C37BD46BC
:100C700080BC70470010024080B487B000AF78603D
:100C800000237B6100233B610F23FB607B68DB78E3
:100C9000002B3AD0274BDB68DB4303F4E0631B0AED
:100CA0007B617B69C3F104033B61FA687B6922FACB
:100CB00003F3FB607B685B781A463B6902FA03F337
:100CC0007B617B689B781A46FB6813407A69134303
:100CD0007B617B691B017B61174A7B681B787969A3
:100CE000C9B213440A4683F80023134A7B681B7871
:100CF0005B09DBB218467B681B7803F01F030121F8
:100D000001FA03F342F820300FE00B497B681B78AF
:100D10005B09DBB218467B681B7803F01F030122D6
:100D20009A4000F1200341F8232000BF1C37BD4644
:0C0D300080BC704700ED00E000E100E036
:100D3C0000A24A04000000000000000001020304AD
:040D4C000607080985
:0400000508000000EF
:00000001FF
